:020000040800F2
:100000000000082095A30008C9A30008298F000854
:100010002F8F0008358F00083B8F0008000000007C
:10002000000000000000000000000000C9A300085C
:10003000C9A3000800000000C9A30008C9A3000864
:10004000C9A30008C9A30008C9A30008C9A30008E0
:10005000C9A30008C9A30008C9A30008C9A30008D0
:10006000C9A30008C9A30008C9A30008C9A30008C0
:10007000C9A30008C9A30008C9A30008C9A30008B0
:10008000C9A30008C9A30008C9A30008F98E000885
:10009000FD8E0008C9A30008ED8E0008C9A3000862
:1000A000C9A30008C9A30008C9A30008C9A3000880
:1000B000C9A30008C9A30008C9A30008C9A3000870
:1000C000C9A30008C9A30008C9A30008C9A3000860
:1000D000C9A30008C9A30008C9A30008C9A3000850
:1000E000C9A30008C9A30008C9A30008C9A3000840
:1000F000C9A30008C9A30008C9A30008C9A3000830
:10010000C9A30008C9A30008C9A30008C9A300081F
:10011000C9A30008C9A30008C9A30008C9A300080F
:10012000C9A30008C9A30008C9A30008C9A30008FF
:10013000C9A30008C9A30008C9A300080D8F0008BF
:10014000118F0008C9A30008018F0008C9A3000887
:10015000C9A30008C9A30008C9A30008C9A30008CF
:10016000C9A30008C9A30008C9A30008C9A30008BF
:10017000C9A30008C9A30008C9A300080000000023
:10018000C9A30008C9A30008C9A30008C9A300089F
:10019000C9A30008C9A30008C9A30008C9A300088F
:1001A000C9A30008C9A30008C9A30008C9A300087F
:1001B000C9A30008C9A30008C9A30008C9A300086F
:1001C000C9A30008C9A3000800000000C9A30008D3
:1001D000C9A30008C9A30008C9A30008C9A300084F
:1001E000218F0008258F0008C9A30008158F00087B
:1001F000C9A30008C9A3000810B5054C237833B97A
:10020000044B13B10448AFF300800123237010BDE9
:10021000C80D0020000000001CE1010808B5034BD8
:100220001BB103490348AFF3008008BD0000000084
:10023000CC0D00201CE10108A3F5803A704700BFF7
:10024000174B002B08BF134B9D46FFF7F5FF00210E
:100250008B460F461348144A121A0DF011FD0E4B2F
:10026000002B00D098470D4B002B00D09847002062
:10027000002104000D000D48002802D00C4809F0B0
:10028000F9F90DF087FA2000290009F0ADFC09F01A
:1002900063FB00BF0000080000000000D99B0008BD
:1002A00000000820C80D0020A0140020759600084A
:1002B00000000000084B10B503F12001044603F1D3
:1002C0008002B0302360C4E92C120CF013F82046F1
:1002D0000BF010FC204610BD80D601080A4B10B56B
:1002E00003F12001044603F1800240F8B43C40F8D9
:1002F000041C043844F8B4290BF0FCFF20460BF032
:10030000F9FB204610BD00BF80D60108094A10B590
:1003100002F1200402F1800140F8B02C0460A0F149
:10032000B00441600BF0E6FF20460BF0E3FB2046F3
:1003300010BD00BF80D6010808B510B10DF0F6FA67
:1003400000B108BD054B1822012105481B68DB6878
:100350000DF010FA012009F0FFFA00BF0804002098
:10036000C459010800000000C5490020C54BD1F860
:10037000FC202DE9F04F42F08072C34C0325C34EA0
:10038000C34F2DED0E8BC1F8FC20D1B0C3F8B04F98
:1003900058601A68BF4C42F001021A604FF07E505C
:1003A0000CF0EEF92A46314638460BF0B5FF013D18
:1003B000D4E90032126819041A4200F0FF82E3689F
:1003C0001960002DEAD110220EA91CA80E951195D6
:1003D000A846A94601244FF0020AAA4ECDE90F55BE
:1003E00000F0E4FEAC4B1B6898680CF05BFC40F23C
:1003F000293340F281300D93FFF79EFF07460DEE43
:10040000100A40F20150FFF797FF83460DEE900A65
:100410000D98FFF791FF0EEE100A4EF20800FFF75D
:100420008BFF43F60760FFF787FF089049F6074008
:10043000FFF782FF099040F60140FFF77DFF0B9028
:1004400041F20100FFF778FF0A9046F60700FFF738
:1004500073FF46F20740FFF76FFF90498C480BF09F
:100460005BFF8F498A480BF057FF8E4988480BF095
:1004700053FF8A4986480BF04FFF8B4984480BF0A5
:100480004BFF864982480BF047FF294640F2015254
:1004900058460DF0F5FB294640F281323846834D2F
:1004A0000DF0EEFB824B284606930BF0B5FBCDF822
:1004B0001C809FED6D9BB0EE49ABB0EE49BB0023B5
:1004C000284673600BF0A8FB28460BF066FB43F64A
:1004D0000762776840F2813303920921089A1CA8C9
:1004E0008DED00DACDE9013240F201535A4600F0B9
:1004F0006FFED6F8048028460BF08AFBB8EB07079E
:1005000008EE100A68EB08083846414614F000FD72
:1005100005EE904AB8EEC87B069BB8EEE55B013469
:100520009F4237EE4B7B78EB0A0341EC160B36EE1D
:100530004A4B87EE053B84EE052BB0EE497B3BEE44
:1005400003BB3AEE02AB36EE4A6BA4EE067B87EEB7
:10055000059B01D2C2460697079BBB4279EB080375
:1005600001D2C1460797332CA9D19FED416BDDF82D
:100570001C8089EE067BB5EE407BF1EE10FA00F1AF
:100580002382B1EEC78B4B49414853EC1A2B0BF039
:10059000C3FE069A534648493D480BF0BDFE42460D
:1005A0004B4646493A480BF0B7FEB5EE409BF1EE9C
:1005B00010FA00F15D82B1EEC97B3D4B4FF00008AF
:1005C0003F49012406934FF002093148C246374D96
:1005D0001EEE10BA2B4E53EC172B0BF09DFE394933
:1005E0002B4853EC182B0BF097FE374928489FED0A
:1005F000227B9FED1DAB8BEE077BB0EE4A9BB0EEEE
:100600004ACB53EC172B0BF087FE40F28132FF21CF
:100610001DEE100A0DF034FB0B9B1DEE902A40F2EC
:100620008131009340F601431DEE100A019340F220
:10063000015300F07FFE254915480BF06DFE24495B
:1006400013480BF069FE214911480BF065FE0D9A25
:1006500041461EEE100A0DF013FB28460BF0DCFAA3
:10066000CDF81C8036E000BF000000000000000054
:1006700000000000008049400000000000408F4062
:1006800000ED00E0001000E055CEACC5E0590108D7
:10069000B00E0020E40D0020080400200C5A0108D0
:1006A000285A0108445A0108605A0108D00E002057
:1006B000FFE30B547C5A0108A05A0108C05A0108F4
:1006C000E05A0108045B0108285B01084C5B010843
:1006D000685B01080023284673600BF09DFA2846EA
:1006E0000BF05BFA40F20153776849F6074101933A
:1006F0000522099B1CA8059159460493CA4B0392F5
:100700000DAA02930323CDED00DA00F019FFD6F80D
:10071000048028460BF07CFAB8EB070708EE100AB5
:1007200068EB08083846414614F0F2FB05EE904AA3
:10073000B8EEC87B069BB8EEE55B01349F4237EE0E
:100740004C7B78EB090341EC160B36EE494B87EEF8
:10075000053B84EE052BB0EE4A7B3CEE03CB39EE35
:10076000029B36EE496BA4EE067B87EE05AB01D209
:10077000C1460697079BBB427AEB080301D2C246EB
:100780000797332CA6D19FEDA26BDDF81C808AEE73
:10079000067BB5EE407BF1EE10FA00F13181B1EE4F
:1007A000C78BA249A24853EC192B0BF0B5FD069A52
:1007B0004B46A0499E480BF0AFFD424653469E492A
:1007C0009B480BF0A9FDB5EE40ABF1EE10FA00F13D
:1007D0001081B1EECA7B994B4FF000089849012473
:1007E0000693C14692484FF0020A964D1EEE10BA8B
:1007F000954E53EC172B0BF08FFD94498C4853EC1E
:10080000182B0BF089FD924989489FED837B9FED62
:10081000849B8CEE077BB0EE49ABB0EE49BB53EC4A
:10082000172B0BF079FD8B4981480BF075FD8A4938
:100830007F480BF071FD87497D480BF06DFD284620
:100840000BF0EAF9CDF81C801DEE108ACDF820904F
:100850000023284673600BF0DFF928460BF09DF962
:100860000A9B77680322039358466F4B0D990193B7
:1008700041F2010304930523029340F28133009374
:10088000434600F099FFD6F8049028460BF0C0F9D3
:10089000B9EB070708EE100A69EB09093846494623
:1008A00014F036FB05EE904AB8EEC87B069BB8EE16
:1008B000E55B01349F4237EE4B7B79EB0A0341EC59
:1008C000160B36EE4A4B87EE053B84EE052BB0EE59
:1008D000497B3BEE03BB3AEE02AB36EE4A6BA4EE2D
:1008E000067B87EE059B01D2CA460697079BBB4253
:1008F000089B73EB090338BFCDE90779332CA7D1E7
:100900009FED436BDDE9078989EE067BB5EE407B01
:10091000F1EE10FA66D4B1EEC78B4449444853EC6B
:100920001A2B0BF0F9FC069A5346424940480BF04B
:10093000F3FC42464B4640493D480BF0EDFCB5EE1A
:10094000409BF1EE10FA46D4B1EEC97B3C493848E1
:1009500053EC172B0BF0E0FC3C49354853EC182BBB
:100960000BF0DAFC3A4932489FED2B7B8BEE077B8C
:1009700053EC172B0BF0D0FC38492D480BF0CCFC76
:1009800037492B480BF0C8FC344929480BF0C4FC0C
:1009900012A80DF0C7F9129932480DF0E3F9199930
:1009A00031480DF0DFF9314B1B6898680CF07AF98B
:1009B000002051B0BDEC0E8BBDE8F08FA268136033
:1009C000002D7FF4EBACFEE451EC170B0BF0BAFFFB
:1009D00041EC180BD7E551EC190B0BF0B3FF41ECD0
:1009E000170BB3E751EC170B0BF0ACFF41EC180BF6
:1009F00093E751EC1A0B0BF0A5FF41EC170BEAE65D
:100A000051EC170B0BF09EFF41EC180BC9E600BF31
:100A100000000000008049400000000000408F40BE
:100A20000000000000000000845B01087C5A0108FF
:100A3000B00E0020A05A0108C05A0108FFE30B5471
:100A4000E05A0108D00E0020001000E0045B01080D
:100A5000285B0108485A01088C5B01080C5A010800
:100A6000A45B0108C05B0108F05B010808040020DA
:100A700051EC190B0BF066FF41EC170B9DE500BF25
:100A80000A4B10B503F12001044603F18002B03097
:100A90002360C4E92C120BF02DFC20460BF02AF841
:100AA0002046CC210BF04CFF204610BD80D601081B
:100AB0000D4A38B502F18001034602F12005A0F18C
:100AC000B40440F8B42C40F8045C43F80419184608
:100AD0000BF010FC20460BF00DF82046CC210BF05B
:100AE0002FFF204638BD00BF80D601080B4A38B51D
:100AF00002F1800102F12005A0F1B00440F8B02C11
:100B0000C0E900510BF0F6FB20460AF0F3FF204647
:100B1000CC210BF015FF204638BD00BF80D6010860
:100B200010B5124C4FF4E1333922382120460AF037
:100B3000C5FE0F4A0F49204608F09AFD0E480023D3
:100B40000E4C10218361C0E90033C0E90233C0E9D3
:100B500004330BF0AAF820460BF06FF82046044A45
:100B60000749BDE8104008F083BD00BF000E00201B
:100B7000F8020020B5020008E40D0020D00E00208D
:100B80007BBB0008F0B501259D4011D0A2F1020EFB
:100B90004FF0000C01E065450AD03EF8024F0CF121
:100BA000010CB4F5405FF6D94FF0000C6046F0BD83
:100BB0004FF00E0C0CFA03FC0CF1070C4FEADC0CA6
:100BC0000028F3D08C45EFD8002DEFD00227023A51
:100BD000002507FA03F329469F1832F8026FAB1D70
:100BE000AC1E46EA8131072B00EBD30E03F007055C
:100BF00021FA04F421FA03F6C8BF4470BA42067021
:100C00000EF10100E9D1002DD0D0C5F10805A940B1
:100C100001706046F0BD00BF70B50E248C400734F3
:100C2000B3EBD40F2DD30123E60813FA01F526D038
:100C300094464FF0000E08231CF8012B0AE0C1F384
:100C40000D01B1F5405F1CD820F81E100EF1010E09
:100C500075450DD91CF8011B03F10804063B41EA58
:100C600002220D2C22FA03F1E9DC75452346F1D866
:100C70004FF0FF3101FA03F332EA030301D13046AA
:100C800070BD0026304670BD2DE9F04F02FA01F428
:100C9000099D0734B5EBD40F49D30127561E4FEAFF
:100CA000D40B07FA06F68F4043D04FF0FF384FF0D1
:100CB000000EC6F1000A08FA02F8F14674466FEA1F
:100CC000080813F8011BA7420EF1080E41EA092992
:100CD00034D9724530D8AEEB020E29FA0EF101EA92
:100CE000080506EA05014942294351451FD06FF026
:100CF0000045651900EB450506EA010C724504F153
:100D00000104CCF1000C4CEA010125F8021F13D8B4
:100D1000A74213D9AEEB020E29FA0EF101EA080C34
:100D20000CEA0601494241EA0C015145E4D14FF079
:100D3000000B5846BDE8F08FA742C2D84FF0FF33F2
:100D400003FA0EFE39EA0E03F1D1F2E72DE9F04184
:100D5000069D01276C1E17FA03F807FA04F4A7EBA7
:100D6000040611D002F1FF3C0CEB080703E0B64586
:100D700005DBBC4508D01CF901EF7445F7DC4FF0EA
:100D8000000E7046BDE8F08105FA03FE0EF1070E75
:100D90004FEADE0E0028F4D08E45F0D8B8F1000FEF
:100DA000EFD0561E002406EB08074FF0FF38A4468C
:100DB00008FA05F86FEA08082C4416F8013F0CFA07
:100DC00005FC03EA0803072C43EA0C0C0FD9234661
:100DD0000246083B2CFA03F1072B02F8011BF8D856
:100DE000A4F1080304F0070400EBD3000130B7427C
:100DF000E2D1002CC5D0C4F108040CFA04FC80F840
:100E000000C0BEE72DE9F04F02FA01F4099D073456
:100E1000B5EBD40F40D3012502F1FF384FEAD40AD5
:100E200005FA08F88D4039D04FF0FF364FF0000C2E
:100E3000C8F1000996406746E646F64313F8011BE1
:100E400075450CF1080C41EA07272CD9624528D8D2
:100E5000ACEB020C27FA0CF101EA060408EA0401E3
:100E600049422143494517D00EF1FF3404446245FD
:100E70000EF1010E04F8011F13D8754513D9ACEB20
:100E8000020C27FA0CF101EA060B0BEA08014942B1
:100E900041EA0B014945EAD14FF0000A5046BDE84E
:100EA000F08F7545CAD84FF0FF3303FA0CFC37EAD0
:100EB0000C03F1D1F2E700BF2DE9F04101268E408D
:100EC00018D0BBB10021851E8E4608460F46145C23
:100ED000013044EA0E2E2EFA01F808F07F0461B1C9
:100EE00001392EFA01FC1CF0010F14D18034B4F545
:100EF000006FF4D30020BDE8F08198424FF0070165
:100F0000F8D212F800C001304CEA0E2E2EFA01FC85
:100F10001CF0010FEAD018F0800F08F0800C01D00F
:100F2000002CE7D0BCF1000F08D124B2013725F81E
:100F3000024FBE4205D09842C9D3DBE7644224B2D7
:100F4000F4E74FF0FF3303FA01F13EEA0103D1D198
:100F5000D1E700BF2DE9F041012582B095401ED0B8
:100F600080460C464FF204076FF44056022201A956
:100F7000404607F0EDF8BDF804305BBA9BB2BB42C7
:100F80009C46F3D8B3F5405F05D9B444BCF5405F47
:100F9000FBD81FFA8CF3013D24F8023BE6D102B0E6
:100FA000BDE8F0812DE9F04FABB001248246184630
:100FB000039304FA02FB664B164604910BFA04F104
:100FC00033F81220029105921BEB0202019258D0D5
:100FD0006FF0010800270DF12809069608FA06F8B7
:100FE0005C4DA9EB41095C4C80444646B846174627
:100FF00006E0049B23F818C008F1010847453FD0DC
:10100000022209A9504607F0A3F8BDF8241046F2C1
:10101000020EC34549BA89B201EB05024FEAD2720A
:1010200002F1FF3202EA0E02A1EB02022144A2EB1E
:101030000E0C4FEAD1714FEADC7C01F1FF310CF16B
:10104000FF3C0CEA0E0C43F2010EA2EB0C026FF413
:10105000405C94444FEADC7C0CF1FF3C0CEA0E0C43
:10106000A2EB0C0C41EA0C0CC3D8029B43458CBF8D
:1010700026F818C029F818C008F101084745BFD163
:10108000069E059B002B60D06FF00103029A4FF083
:10109000010803FA06F6039B334406930AABA3EB5D
:1010A00042030793019B002B4AD0C8EBC873002072
:1010B000049EC8F100055B000246DDE9067C03934F
:1010C0002DE0B646BEF8001042454FEAD13303F199
:1010D000FF34A0EB040A17D3AB4528D9039B03EBDD
:1010E0000609131AB9F8000003EA080303F2FF1314
:1010F0005B0A5B42234081EA00042340594043409D
:10110000AEF80010A9F800300132019B0236023718
:1011100093420CF1020C05F1010511D050469345A4
:10112000CFD8029B934294BFE646BE46CAE7029BD5
:10113000AB42039B8CBF07EB030903EB0C09D0E721
:101140004FEA4808059B4345ACD22BB0BDE8F08F71
:10115000705C0108FE9FFFFFFB0FFFFF0123934020
:1011600030B518D00225A0F1020C0024A1F1020E26
:101170009540204665443CF9023F3EF9021F03FBBF
:101180000303654501FB013043EA000344EA03041D
:10119000F1D140EAE473044951F82200984234BF87
:1011A0000020012030BD00BF445C010810B504469A
:1011B00082B0CDE9002106F073FF2046DDE9002171
:1011C00006F07AFF204602B0BDE8104006F0A8BF46
:1011D0002DE9F04F90464A1E85B0092ADDF840906F
:1011E00000F2A08003290C4640F28A804D080122BB
:1011F000C5F10A058A40023901328D4015449D42ED
:1012000000F28D800E9B4BB1012C7DD0A21E0723D6
:1012100093400F9A0133934200F28180032C76D9D8
:101220001C2303FA04F20323A34007331344119A47
:10123000934274D80123A34009EB430709EB030A47
:101240003B4413F0070202D0C2F108021344524695
:1012500049465FFA84FBCDE902430023CDE9003320
:101260003B4603F055FE314B40464A461E5D0BF1AE
:101270005003691E009600F8013B2346FFF766FD08
:10128000002849D00096461C23465246A91B08EB6D
:101290000600FFF75BFD00283ED0254B06443A468A
:1012A0001B5D08EB0600A91B00932346FFF74EFDCC
:1012B00090B30644B5422FD10E9BEBB1FB074FF024
:1012C00002035246494648BF0137A3403B443846D3
:1012D0000093234607F042FDF0B1012C1AD0A11E65
:1012E00007258D400E9823463A46294600F801BB53
:1012F000FFF748FC85420FD1002005B0BDE8F08F14
:1013000003258D4001357AE70F9B042B07D94FF455
:10131000887288E70425E5E76FF00500EDE76FF0D8
:101320000100EAE76FF00400E7E700BF2C5C01086A
:10133000205C01082DE9F04F85B0DDF838A0002BC6
:101340006BD014781E46914604F0F003502B64D104
:1013500004F00F04631E092B5FD8032C804651D97B
:1013600063080122A01EC3F10A03A2408340013298
:1013700013449E4251D10727874001378F4251D8ED
:1013800006230F9AA340013393424BD8274B0125E4
:10139000214650461A5D731EA540009309F10103D2
:1013A00003920AEB050BFFF72DFDB0B30130039A52
:1013B0002146361A09EB000358460096FFF722FD36
:1013C00058B35D445A465146EB074FF0020348BFFD
:1013D0000135A3402B4428460093234607F0BEFC6A
:1013E000D8B14046013F23462A46394600F8014B12
:1013F000FFF7C8FB87420CBF00206FF0050005B067
:10140000BDE8F08F0323A34001339E4205D1012C98
:1014100001D10527B2E7A01EADE76FF0020005B0CD
:10142000BDE8F08F6FF00100E9E700BF2C5C010818
:10143000F0B587B00D9F109E002F7DD001460C980F
:10144000047804F0F000502876D104F00F04651EF3
:10145000092D71D8032C20D94FEA540C0120A4F196
:10146000020ECCF10A0CA0400CFA0EFC01308444B0
:10147000BC4561D14E20119FA0400730B84258D8DA
:101480001068282855D9022B35D0032B0CD0012BFE
:1014900011D06FF0040007B0F0BD4FF0030C0CFA50
:1014A00004FC0CF1010CE3E7AB402933032C08BF2B
:1014B000013B83423DD84FF0010C02220CFA04FCA0
:1014C000A24006EB4C0706EB0C0307EB4C0007EBC6
:1014D0000C05024412F0070C02D0CCF1080C624457
:1014E000029001950097CDE90342324606F070FF65
:1014F000002007B0F0BDC4F10A054FF4807223FA52
:1015000005FC4023EA40EB401A44802323FA05F708
:10151000102302EB4202EB403B4402EB4303012267
:101520002C3322FA05F5A3EB4C03A3EBC50383424E
:10153000C1D96FF00100AEE76FF00200ABE700BF6A
:1015400010B5C4B0469C0094479C01944A9C0494F6
:1015500006AC039410AC02944B9C0594FFF768FF13
:1015600044B010BD2DE9F04F282985B017461A4622
:10157000DDF840800E9B40F29680002B00F09380B7
:10158000157815F0F00F40F08E800646681E092889
:1015900000F289800C46317801F00F0C654540F06F
:1015A000FC80032F00F20381DFE807F082929D02A6
:1015B00001F0F001502976D1032101FA00F0293021
:1015C0008D4208BF0138A0426DD101210291012D49
:1015D00000F08780A81E072181400131994262D125
:1015E00008211198A9400131814200F2DD8018F0F4
:1015F000010F03F1FF3302F10102294618BF08F180
:10160000010803934FF002094046FFF705FB039BD7
:1016100009FA05F9834208EB090B08EB490A42D1A4
:10162000029B002B00F0AA80624B294650465A5D6F
:10163000A4F12903009306F12903FFF725FB90B3DA
:1016400000F12902A2427CD0002F77D1C5F10A0116
:101650004FF4807340274FF0100CCB40CF402CFA52
:1016600001FC3B448027CF4003EB4303674403EB7B
:10167000470302272C33CF40A3EB4703012727FA68
:1016800001F1A3EBC103A3420DD1A24259D22830EC
:10169000321802E09B1BA34253D2134612F8011FDB
:1016A00002330029F6D06FF0020005B0BDE8F08FDC
:1016B00001F0F001302975D050296ED1032181400D
:1016C0002931032D08BF0139A1423FF47EAFEAE77B
:1016D00001F0F0013029E6D10021012D02917FF4C3
:1016E00079AF05217AE701F0F0013029DBD1C5F1AE
:1016F0000A004FF480714FF0400C4FF0100EC140C3
:101700002CFA00FC2EFA00FE61444FF0800C2CFAFB
:1017100000FC01EB4101F44401EB4C014FF0020CE1
:101720002C312CFA00FCA1EB4C014FF0010C2CFAEF
:1017300000F0A1EBC001A142CED0B4E7022FA4D0AB
:10174000B1E70F980AEB090406F0EAFC029BF3B13B
:1017500023462A4659460F98FFF724FC294640465F
:1017600007F084FA2B46424651465846009407F04B
:1017700089FA90B1002005B0BDE8F08FA4F12903EB
:1017800006F1290229465046FFF796FB57E72A46FD
:1017900059460F98FFF7DEFBE0E76FF0030005B056
:1017A000BDE8F08F029712E76FF001007DE76FF060
:1017B00004007AE7385C0108282924D92DE9F04192
:1017C000B8B0054698460C4604AE1746304606F0BB
:1017D00067FC691C3046282206F06EFC3046DDE9C5
:1017E0003F1206F069FC2146429C43463A46284691
:1017F0000394419CCDE901643E9C0094FFF7B2FE46
:1018000038B0BDE8F0816FF002007047012303FAA1
:1018100001F299422DE9F04F22FA03F22DED068BE9
:1018200097B014910E900B9240F2D18000EBC2025F
:101830001393022315921293A2F1080311930B9AAA
:10184000129B0C92520859080B920D911946002BCD
:1018500000F0B3800E9B6048A3EBC203089200EB3C
:101860000111083B09911093159BA3EBC2030F9341
:1018700000230A93089B0B9A09999A1AD1E900450B
:1018800093420192D1E9020145EC1A4B41EC190B4C
:1018900040F28580109A02EBC30204920F9A02EB89
:1018A000C30205920E9A02EBC3020392119A02EB55
:1018B000C3030293049E0299019B039A059F01337F
:1018C000F6E90289F1E90245D2E900AB04965046F7
:1018D000019302915946D7E9006753EC1A2BCDE9E1
:1018E000066700F0E9FC07460E462046294653EC01
:1018F000192B00F0E1FC0B4602463146384603F155
:10190000004300F03BFC07460E465046594653EC58
:10191000192B00F0D1FC02460B46204629461546FD
:101920001C4653EC1A2B00F0C7FC02460B46284617
:10193000214600F023FC3A4605460C463346404615
:10194000494600F01BFC2A4683468A4623469DED05
:10195000068B51EC180B00F011FC049B3A46C3E9CE
:1019600000BA059BE3E8020140460593494606F1AB
:10197000004300F003FC2A4606460F4604F10043EC
:1019800051EC180B00F0FAFB039A019BE2E80267A6
:101990000392029AC2E90001089A93428AD1099AF5
:1019A0000C9910320A9B09920133089A0A930A444F
:1019B00008920D9A9A427FF45DAF129A139B5200DF
:1019C00001331292149A13939A427FF438AF17B0EE
:1019D000BDEC068BBDE8F08F885C01082DE9F04F67
:1019E00001230A462DED068B97B09A42159103FA12
:1019F00001F10D9021FA03F414910B9440F2EF8061
:101A00000A9300EBC4031393083BCDE91112109322
:101A10000A9A119913460C92520049080A920B9A9D
:101A20001191002A00F0B780714A02EB01120D9962
:101A300009921A46A1EBC3030892083B0F93139B2C
:101A4000A3EBC2030E930023099A18460193D368AF
:101A500003F10041089B09EE901A9168834209EE58
:101A6000101AD2E9001242EC1A1B40F287800F9A3A
:101A700002EBC30203920E9A02EBC30202920D9A8A
:101A800002EBC30B109A02EBC30A0399019B029865
:101A900001335AF8087FF1E90289DBE90054039128
:101AA0002A4601932346DAF80460D0E90001CDE923
:101AB00004014046494600F061FB3A4633469DED3D
:101AC000048BCDE9060151EC180B00F057FB039B8A
:101AD000069A1A60079A5A6004F10043029AE2E8F3
:101AE00002014046494602922A4600F047FB05465D
:101AF0000C463A4606F100432F46264651EC180B99
:101B000000F03CFB05460C463846314653EC1A2B98
:101B100000F0D2FB19EE903A8146884619EE102A61
:101B20002846214600F0C8FB0B460246414648467F
:101B300003F1004300F022FB19EE102A804689468B
:101B400019EE903A3846314600F0B6FB02460B4695
:101B50002846214615461C4653EC1A2B00F0ACFBD8
:101B600002460B462846214600F008FB019B089AD6
:101B70009342EBE80289CAE9000186D1089B0A9AE0
:101B80001344099A1032089309920C9A9B1A0B9AE3
:101B90009A423FF659AF129B013B012B12937FF4FF
:101BA00037AF144B159A03EBC203D3E90045149BDE
:101BB00083B10D9B0027DDF85080A3F108060137A3
:101BC00022462B46F6E9020100F076FBB845C6E94D
:101BD0000001F4D117B0BDEC068BBDE8F08F159B6A
:101BE000002BDED117B0BDEC068BBDE8F08F00BF37
:101BF000885C0108889C0108F8B5012313FA02F7F4
:101C00000FD0A0F10804A1F1080600250135F4E980
:101C10000201F6E9022300F0B1FAAF42C4E9000183
:101C2000F4D1F8BDF8B50127974012D0A0F108050E
:101C3000A1F10804002654F8082F01366368F5E97D
:101C4000020103F1004300F099FAB742C5E900012F
:101C5000F1D1F8BD01238B400BD00823083803FADB
:101C600001F20244C368083003F10043904243602C
:101C7000F8D1704701238B40B3EB530F16D90822DC
:101C80006FF0604C00B54FEA530E02FA01F1A0F17B
:101C90000803F4445A1800EBCC00C368083003F181
:101CA000004390424360F8D15DF804FB704700BFE9
:101CB000012303FA02F22DE9F04FDA402DED068BF5
:101CC00085B0039252D06FF06043A0F10804134432
:101CD00000EBC30201EBC3030839924602910021D5
:101CE0009B460F46029B0137F3E90256F4E90201D5
:101CF0000293FAE90223FBE90289CDE900232A468F
:101D0000334641EC190B00F0D7FA42464B469DEDA5
:101D1000008B46EC1A5B06460D4651EC180B00F0A2
:101D2000CBFA0B4602462946304603F1004300F049
:101D300025FA42464B4606460D4651EC190B00F07B
:101D4000BBFA8146884653EC1A2B51EC180B00F075
:101D5000B3FA0B4602464146484600F00FFA039B91
:101D6000BB42C4E90065CAE90001BBD105B0BDECC6
:101D7000068BBDE8F08F00BF2DE9F04106990126E2
:101D80008E400FD017469846A0F108040025013573
:101D90003A464346F4E9020100F08EFAAE42C4E945
:101DA0000001F4D1BDE8F0812DE9F04F012489B0A4
:101DB00004FA03F333FA04F4079465D0A1F108039D
:101DC000A2F1080A4FF0000B0293A0F10803CDF82E
:101DD00018A005936FF06043CDF804B0234401EBE5
:101DE000C30102EBC3030391049302990698049C78
:101DF000F1E90223F0E90267029103990690104687
:101E0000F1E90289F4E902AB0391019904940131EB
:101E10000191194600F050FA04460D464B464246E1
:101E20004946404600F048FA02460B4620462946FD
:101E300000F0A4F93246054689463B46304639460D
:101E400000F03AFA04460E4652465B465046594662
:101E500000F032FA02460B462046314600F08EF979
:101E600002460B462846494600F088F902460B46D2
:101E70000020074900F094FA059B019AE3E902016A
:101E80000593079B9342B0D109B0BDE8F08F00BF26
:101E90000000F03F2DE9F04F2DED0A8B8FB00124AB
:101EA000239DAC4064080D9400F0C380083B083AC1
:101EB00008390493A0F10803059200220193229BA4
:101EC0000291083B00920393E3009846029B009A1C
:101ED000F3E902010132029343440092049AD3E9E8
:101EE00000AB059BF3E90245F2E902670593434421
:101EF00052F808900492CDE90645D3E9003447EC46
:101F00001C6BCDE9083402EB0803039A5D68F2E923
:101F1000023405F100450392CDE90A3402EB0803CF
:101F20005C6852F80830324604F100440C933B469A
:101F300041EC1B0B00F0C0F92B4607460E464A4603
:101F40005046594600F0B8F90B460246314638462D
:101F500003F1004300F012F906460F464A462B46AD
:101F600051EC1B0B00F0A8F90BEE106A05460E466B
:101F70005046594653EC1C2B00F09EF902460B4686
:101F80002846314600F0FAF806460D469DED0AABAC
:101F90009DED069B53EC1A2B51EC190B00F08CF9BC
:101FA000DDF830B08246894623465A469DED088BBF
:101FB00051EC180B00F080F90B460246494650469A
:101FC00003F1004300F0DAF88C465A462346814676
:101FD000644651EC190B00F06FF98A46834653ECC6
:101FE0001A2B51EC180B00F067F902460B465846C5
:101FF000514600F0C3F886468C4623464A46394689
:102000001BEE100A7746644600F0B8F8019B3A468A
:10201000E3E90201304601932946234600F0AEF879
:10202000019B009A4344C3E900010D9B93427FF456
:102030004DAF0FB0BDEC0A8BBDE8F08F012303FA62
:1020400002F22DE9F04132FA03F81CD06FF060443F
:10205000A0F10807A1F108050026444400EBC404E0
:102060000136F5E90223F7E9020100F025F9D5E987
:102070000023C7E90001F4E9020100F01DF9B045B1
:10208000C4E90001ECD1BDE8F08100BF012303FAEF
:1020900002F22DE9F04732FA03FA82B026D06FF04F
:1020A0006044A1F10809A0F1080800255444002665
:1020B000104F00EBC404304639460135F9E90223DC
:1020C00000F06EF902460B46F8E90201CDE9003254
:1020D00000F0F2F8DDE90032C8E90001F4E902019C
:1020E00000F0EAF8AA45C4E90001E4D102B0BDE875
:1020F000F08700BF0000F03F70B5CB175840594043
:10210000C01A994102F2FE3250EA010434EAE27444
:1021100065422C4312EAE47220324C420C4390EAAE
:10212000010535EAE475694010EAE470E40F12EB4A
:102130004412B1FA81F4121BD4F12005A14030FA07
:1021400005F5A04029436FF3DF710500C00A50EA8E
:102150004150C90A51EA0251C5F3080606F2FF16BA
:102160003543C5F34225C826EE4016F00106801916
:1021700051F1000151EAC37170BD00BF2DE9F04D6E
:10218000C1F31E04C3F31E05871AAC4127437D42E9
:102190002F4331EA0706264390EA020491EA030539
:1021A00014EAE67415EAE6756040694062406B40E7
:1021B000C1F30A5404F2FF75ED0A6FF31E5151EAA0
:1021C0000551CD176FF3DF71C3F30A5606F2FF779F
:1021D000FF0A6FF31E5353EA0753DF176FF3DF73E2
:1021E000C90051EA5071C000DB0053EA5273D200BB
:1021F000A61BB6F13C0812EAE87213EAE873B6F1DE
:10220000200832EAE87B12EAE87233EAE87A52EA16
:102210000A0213EAE87316F01F06D6F1200812FA34
:1022200008FA5BEA0A0BF24013FA08FA52EA0A02C9
:10223000F340DBF1000656EA0B0652EAD6726F4015
:102240007A407B40D21BBB4180185941B0FA80F2E2
:10225000B1FA81F343F340163240D218A41AB2F116
:10226000200710FA07F79140D2F12006394330FADF
:1022700006F631439040073414EAE1740300C00AC3
:1022800050EA4150C90AC3F3080606F2FF16334369
:10229000C3F34223C826DE4016F00106801951F12F
:1022A000000111EB0451644210EAE47011EAE47198
:1022B00065F3DF71BDE8F08D2DE9F04D30F07E441F
:1022C000CD0155EA506555F0006535F0704532F0A6
:1022D0007E46DF0157EA526757F0006737F07047D4
:1022E000A4FB068A5FEACA1A5AEA586A9BEA0B0BF1
:1022F000E4FB07ABE5FB06AB58EACA185FEA5A6A8B
:102300005AEACB1A9BEA0B0BE5FB07ABD8F10004AA
:1023100058EA04085AEAD87A1AF001065FEADB554F
:102320006D4256EA5A0656EACB765FEA5B079AEAAE
:10233000060A9BEA070B3AEA050A3BEA050B96EA0E
:102340000A0697EA0B0748005A00400D00F2FF7496
:10235000520D02F2FF781218A2F20042521B14EA48
:102360000804D54315EA045512EAE57216EAE57643
:1023700017EAE57759406FF31E0162F31E513400EE
:10238000B00850EA877011EB970114F00704C823D6
:10239000E34013F00103C01851F10001BDE8F08DD6
:1023A0002DE9F04DC1F31304C3F3130554F4801465
:1023B00055F4801598EA0808861A74EB05074FEA69
:1023C000380812EAE87615EAE877801BBC41001865
:1023D0006441861A74EB05074FEA380812EAE8767A
:1023E00015EAE877801BBC4100186441861A74EB3B
:1023F00005074FEA380812EAE87615EAE877801B05
:10240000BC4100186441861A74EB05074FEA38088E
:1024100012EAE87615EAE877801BBC4100186441AF
:10242000861A74EB05074FEA380812EAE87615EACF
:10243000E877801BBC4100186441861A74EB0507DD
:102440004FEA380812EAE87615EAE877801BBC41C3
:1024500000186441861A74EB05074FEA380812EA3F
:10246000E87615EAE877801BBC4100186441861ABB
:1024700074EB05074FEA380812EAE87615EAE877C0
:10248000801BBC4100186441861A74EB05074FEAB3
:10249000380812EAE87615EAE877801BBC41001894
:1024A0006441861A74EB05074FEA380812EAE876A9
:1024B00015EAE877801BBC4100186441861A74EB6A
:1024C00005074FEA380812EAE87615EAE877801B34
:1024D000BC4100186441861A74EB05074FEA3808BE
:1024E00012EAE87615EAE877801BBC4100186441DF
:1024F000861A74EB05074FEA380812EAE87615EAFF
:10250000E877801BBC4100186441861A74EB05070C
:102510004FEA380812EAE87615EAE877801BBC41F2
:1025200000186441861A74EB05074FEA380812EA6E
:10253000E87615EAE877801BBC4100186441861AEA
:1025400074EB05074FEA380812EAE87615EAE877EF
:10255000801BBC4100186441861A74EB05074FEAE2
:10256000380812EAE87615EAE877801BBC410018C3
:102570006441861A74EB05074FEA380812EAE876D8
:1025800015EAE877801BBC4100186441861A74EB99
:1025900005074FEA380812EAE87615EAE877801B63
:1025A000BC4100186441861A74EB05074FEA3808ED
:1025B00012EAE87615EAE877801BBC41001864410E
:1025C000861A74EB05074FEA380812EAE87615EA2E
:1025D000E877801BBC4100186441861A74EB05073C
:1025E0004FEA380812EAE87615EAE877801BBC4122
:1025F00000186441861A74EB05074FEA380812EA9E
:10260000E87615EAE877801BBC4100186441861A19
:1026100074EB05074FEA380812EAE87615EAE8771E
:10262000801BBC410018644198FAA8FA861A74EB22
:1026300005074FEA380812EAE87615EAE877801BC2
:10264000BC4100186441861A74EB05074FEA38084C
:1026500012EAE87615EAE877801BBC41001864416D
:10266000861A74EB05074FEA380812EAE87615EA8D
:10267000E877801BBC4100186441861A74EB05079B
:102680004FEA380812EAE87615EAE877801BBC4181
:1026900000186441861A74EB05074FEA380812EAFD
:1026A000E87615EAE877801BBC4100186441861A79
:1026B00074EB05074FEA380812EAE87615EAE8777E
:1026C000801BBC4100186441861A74EB05074FEA71
:1026D000380812EAE87615EAE877801BBC41001852
:1026E0006441861A74EB05074FEA380812EAE87667
:1026F00015EAE877801BBC4100186441861A74EB28
:1027000005074FEA380812EAE87615EAE877801BF1
:10271000BC4100186441861A74EB05074FEA38087B
:1027200012EAE87615EAE877801BBC41001864419C
:10273000861A74EB05074FEA380812EAE87615EABC
:10274000E877801BBC4100186441861A74EB0507CA
:102750004FEA380812EAE87615EAE877801BBC41B0
:1027600000186441861A74EB05074FEA380812EA2C
:10277000E87615EAE877801BBC4100186441861AA8
:1027800074EB05074FEA380812EAE87615EAE877AD
:10279000801BBC4100186441861A74EB05074FEAA0
:1027A000380812EAE87615EAE877801BBC41001881
:1027B0006441861A74EB05074FEA380812EAE87696
:1027C00015EAE877801BBC4100186441861A74EB57
:1027D00005074FEA380812EAE87615EAE877801B21
:1027E000BC4100186441861A74EB05074FEA3808AB
:1027F00012EAE87615EAE877801BBC4100186441CC
:10280000861A74EB05074FEA380812EAE87615EAEB
:10281000E877801BBC4100186441861A74EB0507F9
:102820004FEA380812EAE87615EAE877801BBC41DF
:1028300000186441861A74EB05074FEA380812EA5B
:10284000E87615EAE877801BBC4100186441861AD7
:1028500074EB05074FEA380812EAE87615EAE877DC
:10286000801BBC4100186441861A74EB05074FEACF
:10287000380812EAE87615EAE877801BBC410018B0
:102880006441861A74EB05074FEA380812EAE876C5
:1028900015EAE877801BBC4100186441861A74EB86
:1028A00005074FEA380812EAE87615EAE877801B50
:1028B000BC4100186441861A74EB05074FEA3808DA
:1028C00012EAE87615EAE877801BBC4100186441FB
:1028D000861A74EB05074FEA380812EAE87615EA1B
:1028E000E877801BBC4100186441861A74EB050729
:1028F0004FEA380812EAE87615EAE877801BBC410F
:1029000000186441861A74EB05074FEA380812EA8A
:10291000E87615EAE877801BBC4100186441861A06
:1029200074EB05074FEA380812EAE87615EAE8770B
:10293000801BBC4100186441861A74EB05074FEAFE
:10294000380812EAE87615EAE877801BBC410018DF
:102950006441013874F100044FEA380898FAA8F885
:1029600018F001045FEADA56764254EA580454EA51
:10297000CA745FEA5A0598EA04089AEA050A38EA2E
:1029800006083AEA060A94EA080495EA0A054800A5
:102990005A00400D00F2FF77B0EB525000F2FD30CC
:1029A000801BC24312EA075210EAE27014EAE27492
:1029B00015EAE27559406FF31E0160F31E512600BF
:1029C000A00850EA857011EB950116F00706C823A0
:1029D000F34013F00103C01851F10001BDE8F08D80
:1029E000C0F10043C0EB430300EAE3721344A3FBCE
:1029F000032C00B5A2FB013E23F00043A3FB003EE5
:102A00009B184CEB0E02DB0F43EA42031B1A00EA51
:102A1000E3721344A3FB032CA2FB013E23F000430B
:102A2000A3FB003E9B184CEB0E02DB0F43EA420374
:102A30001B1A00EAE3721344A3FB032CA2FB013E22
:102A400023F00043A3FB003E9B184CEB0E02DB0F70
:102A500043EA42031B1A00EAE3721344A3FB032C6C
:102A6000A2FB013E23F00043A3FB003E9B184CEB6E
:102A70000E02DB0F43EA42031B1A00EAE37213441F
:102A8000A3FB032CA2FB013123F00043A3FB003185
:102A90009B184CEB0102DB0F43EA42031B1A00EACE
:102AA000E372134443F300021040184440085DF8F9
:102AB00004FB00BF2DE9F04F85B01E46012391466F
:102AC0000E9C0F9D9340CDE90201294620460193BB
:102AD000FFF786FFA0FB06268346A5FB023123F005
:102AE0000043A3FB04319B1846EB0102DB0FB9F155
:102AF000090F43EA4203A3EB040304EAE37213441D
:102B000016D84946A3FB03060131A5FB002322F09A
:102B10000042A2FB04321B1842EB0602DB0F0A291B
:102B200043EA4203A3EB040304EAE3721344E9D14A
:102B3000C4F10047A4F1020A4FF01E0E3946A1FB72
:102B400001122AFA0EF00EF1FF3EA5FB016C40F3D4
:102B5000000026F00046A6FB046C71184CEB020244
:102B6000C90F41EA4201091B04EAE1721144A1FBC9
:102B7000036CA5FB062822F00042A2FB042896194C
:102B800048EB0C0CF20FBEF1FF3F42EA4C02A2EB05
:102B9000040204EAE276324482EA010202EA000216
:102BA00081EA0201CBD1A5FB0120C9F10A0922F07B
:102BB0000042A2FB0420511840F10002C90F41EA73
:102BC0004201091B04EAE1721144A1FB0BB1A5FB10
:102BD0000BE22EF0004EAEFB04E21EEB0B0E41EBBF
:102BE00002014FEADE7E4EEA410EAEEB040E04EA2D
:102BF000EE729644019ACAB300223846164602E0A5
:102C00001C4A32F81A200299A7FB03C8013641F882
:102C10002270039906FA09FA41F82200A0FB0E0778
:102C2000A5FB0C12A5FB002B21F0004122F0004275
:102C3000A1FB041B11EB0C0CA2FB04214BEB0808BD
:102C400010184FEADC7C41EB0702C00F4CEA480C3D
:102C500040EA4200019AACEB040C001BB24204EAC9
:102C6000E077384404EAEC776744C9D105B0BDE8A1
:102C7000F08F00BF04B601082DE9F04101390125AC
:102C8000069C8D4036D00425A0F1040CC0F1080646
:102C9000C0F10C0E05FA01F10CEB010556F81C1001
:102CA0005EF81C00A1FB0008A0FB037127F00047A1
:102CB000A7FB0217091847EB0800C90F41EA4001BA
:102CC000891A02EAE1700144A1FB0418A1FB030781
:102CD00020F00040A0FB0207411847EB0800C90F95
:102CE00041EA4001891A02EAE17001444CF8041FEC
:102CF0006545D3D1BDE8F0812DE9F041069C41B393
:102D000000EB810E00218C46ACFB04C75EF8046D1D
:102D1000ACFB0315B61A21F0004102EAE675B61ABB
:102D2000A1FB0218354411EB0C0148EB0707C90F52
:102D3000704541EA4701A1EB020105EB010C02EAF3
:102D4000E1718C4402EAEC718C44DDD16046BDE84F
:102D5000F0818C466046BDE8F08100BF61B3043865
:102D600070B5141F00EB810E8446002125465CF8E7
:102D7000042F55F8046F521AE645A2EB06024FEAFB
:102D8000D271F4D1C1F101025D4242EA030C6D0837
:102D9000CCF1000C54F8041F50F8042F6940D31AEA
:102DA000864501EA0C02A3EB020323F000424FEA3E
:102DB000D3730260EED170BD704700BF2DE9F04FB4
:102DC0008FB00C68944607EE902A1C9E1E9A0D91B7
:102DD0000292016806FB04F20C901A98189D00FB01
:102DE0000122209F079605FB02F2059022F0004683
:102DF000029807FB04F20A9700FB0122039605FBE9
:102E000002F2019322F0004504951B9D06951D9D3D
:102E100008951F9D0995219D0B95002B74D00022CC
:102E2000ACF10408DDE90CBA154694461746914604
:102E300003E05BF8041F5AF8044F079B069EA4FBAF
:102E4000030358F804EF10EB0C0C089804FB003354
:102E500043EB0707059BA1FB03031CEB000001FBF1
:102E6000063343EB0707039BEEFB03070A9B4FEA7E
:102E7000D07C20F00040A4FB03364CEA470C9B18A2
:102E80000B9A4FEAE77704FB0264029A44EB0505CC
:102E9000A1FB02249A18099B01FB0344049B44EB09
:102EA00005052C46EEFB0324B9F1000F05D022F0F6
:102EB00000434BF8040C4AF8043C09F10109019B5A
:102EC000D20F4B454FEAE47542EA4402B1D1614664
:102ED000FB0FED0F019C6FF040400C9E20440D9FB6
:102EE00046F82010214647F82020304617EE902A59
:102EF000FFF734FF2B4617EE902A214638460FB0D5
:102F0000BDE8F04FFFF72ABF01990D460B460A4670
:102F1000E0E700BF2DE9F04F93B0074601240E46CD
:102F20000D9021980A9184401193DDF870A01094BF
:102F3000DDE91D1300F087809200043B1F9D08927D
:102F40008A000E936FF0404306920222A6EB050B17
:102F50000C97824005940F920AEB03022B449200D7
:102F60009B0009920B93631E0793209BC3F11F03E1
:102F700001930E9B109A53F8047FDDF844900E9352
:102F80007F42059B9B1A03930C9B0493BAF1000F9D
:102F90003FD0099B1F9A59F803304FEA937E0A9B52
:102FA000CEF1000E93424FEA5E0E32D900240B9A06
:102FB000049B4FEAE778CDF80890A4469D18DDF809
:102FC00080902246A245734602D9029B53F82430D2
:102FD00003FA09F0019955F8046F013420F000401C
:102FE00040EA0C0023FA01FCA0FB07319B1900FB0F
:102FF000081141F100019B1841EBE27223F00041FE
:103000005C454FEAD373296043EA4202DAD1DDF826
:103010000890039B079A934218D0049B089A134484
:103020000493039B069A01339144059A03939A42B1
:10303000ACD1134608990C9A01330A4405930C92BB
:103040000F9A9A4295D113B0BDE8F08F0D9B7F4245
:103050000493E6E72DE9F04F4FF0010889B018FA24
:1030600002F36CD0C2F10A028146DFF8F4B008FA2C
:1030700002F85A1E03924A1EC246C1F10101D3183A
:1030800001920491059300230293BAF1000F59D0E5
:103090000026374607E06B42013683EA0C0CB24546
:1030A00065442F4435D0082206A9484605F050F85B
:1030B000082206A94846DDE9063513EB0B0325F087
:1030C0000044234B4FEAD57544EB030405F040F868
:1030D000079B4FF0000CE40FDDF818E023F00048E8
:1030E0001C481D4B01211D4ABEEB030384F0010364
:1030F00068EB0202D243D20F13405B420B40013116
:103100001B294CEA030CC6D050F8083F1443426810
:10311000EAE707F17F03FE2BB7D807F00103019917
:10312000049A0A4403998A42029A0ED19A42ACD078
:10313000019B059A03F8017F9A420193A5D109B03A
:10314000BDE8F08F53465746E9E75A400292EFE751
:1031500027C82EEE10BE010874F9F53FF6400C5951
:10316000A8540DD22DE9F04F89B0129D0291012192
:10317000A9400591002A60D000295BD09B00002166
:103180000793A0F10803039104936FF040431344A5
:10319000029A9900A2F1040902EB830B0691CDF883
:1031A00004B0029B0026069A4FF0000A294D4FF00A
:1031B000000BD758BF0F7F424FEA570807F00104B2
:1031C00059F8043F002288EA03031C4407EA440339
:1031D00024F00040E40FC01AC117FEF78DFF3246FD
:1031E0002B46FFF769F802460B4650465946FEF754
:1031F000C5FF194B82468B46304629460022FFF711
:103200005BF8019B06460D469945D9D1049B079969
:10321000029A01980A440844059902920190E3E950
:1032200002AB0493039B01339942039302D0A2F1B2
:103230000409B6E709B0BDE8F08F059B002BF9D073
:103240000823114603FA05F209B0BDE8F04F0AF071
:1032500017BD00BF0000F03F0000E0412DE9F04F36
:103260008BB00790104608920122DDF8508002FAD8
:1032700003F3159F9342069361D99A464FEA810959
:10328000031FBE4605920993059A53464FEA5A0A10
:10329000002A57D009FB0AF2089903FB09F30292AE
:1032A00004936FF04043059AD31801EB8303009316
:1032B000079B0193099B03EBC2030393009B019AB5
:1032C00053F804CF15460093029B9E18BAF1000FE5
:1032D00027D00027336801372A68ACFB034BA2EBE9
:1032E0000801A4FB0E3023F00040A0FB08301B199E
:1032F00040EB0B00DB0FBA4543EA4003A3EB0803A6
:1033000008EAE37003441944A2EB030308EAE172FC
:10331000114408EAE372134429604D4433604E447B
:10332000D8D1019B049A1344039A0193009B9342C2
:10333000C4D1059B069A5B009A420593A4D80BB0B2
:10334000BDE8F08FFEE700BF2DE9F04F8DB01C46C1
:103350000B930123DDF858B0CDE9070203FA04F01E
:1033600098420A9040F28A8006934FEA810A131F1E
:103370004FF0000905900993059B08985A08069B91
:10338000079F590098466FF0404305920691D31865
:1033900000EB8303019308FB0AF302930AFB01F39A
:1033A0000493099B03EBC2030393019B53F804CFDF
:1033B0000193029B03EB070EB8F1000F2CD0002104
:1033C0000E465EF8010001367B581A1A0344A3EB3F
:1033D0000B030BEAE2750BEAE3702A440344A2FBF9
:1033E0000C527B50179BA5FB034324F00044A4FB25
:1033F0000B305B1904FB09004FEAD37340EB020268
:10340000464543EA4203A3EB0B030BEAE3752B4467
:103410004EF801305144D4D1049B019A1F44039BC0
:103420009342C2D1059B012BA6D14FF000400B9BCC
:10343000D84000220A9E079C1146179DA3580131CF
:10344000A0FB038CA8FB057327F0004EAEFB0B37E7
:1034500013EB08030EFB09774FEAD37347EB0C0716
:103460008E4243EA4703A3EB0B030BEAE3773B44AB
:10347000A3505244E2D80DB0BDE8F08F0A9B002B58
:10348000F9D04FF000400B9B4FEA810A4FF0000942
:10349000D840CEE72DE9F04F8FB00129199C059354
:1034A000894B0D922360CDE90B1040F2B18004935B
:1034B00093004FF0000A0A900893844B099301236C
:1034C00007EE903A099BD3F80C805B69404606935F
:1034D000C8F1020303FB08F2C2F1020202FB03F38C
:1034E00003FB08F2C2F1020202FB03F303FB08F242
:1034F000C2F1020202FB03F303FB08F2023A02FBF1
:1035000003F323F0004B5946FFF76AFA059B079037
:10351000002B00F0D58017EE903A0A9D0C9E424693
:103520009F00002302935B4607993046341F0091A9
:1035300017EE901AFFF7E0FBB959DDF864E0081ABE
:10354000B919DDF810C002EAE07803910021804447
:103550000698A8FB00B8ABFB030920F00040A0FBD5
:10356000020910EB0B0049EB0808C00F40EA4800C5
:10357000801A02EAE07B834401E05EF804CF54F84D
:10358000040F40184AEB0A01A542ECFB0B0120F0A6
:10359000004C4FEAD070C4F800C040EA4101ECD1C1
:1035A0000398016008980299064405440131059882
:1035B00081420291B8D1199B90461B680493199BD4
:1035C000049A1F441946002300E00A68A2FB082061
:1035D000D21840F1000322F00040D20F41F8040B52
:1035E0008F4242EA4303F0D117EE902A199941F82D
:1035F0002230531C099A07EE903A0C3209920A9A2B
:1036000004320A920B9A934202D00B68049359E752
:10361000189B002B51D0059B002B4ED00D9B4FF0DB
:1036200000080B9A4FEA83090C9B1999A3F1040E29
:103630009B4601EB820A0EEB820E0B9BB3B3002577
:103640000EF10406D44629468C075CF8041D05F0EB
:103650000103304644EA510456F8047D5A1E01F035
:1036600001013B1BE41BB3454FEAD37343EAE47308
:1036700003EA020345EA0305E6D1199BED17083872
:10368000191F002350F8042F51F8044FD31A864510
:10369000A3EB040323F000444FEAD37384EA02044B
:1036A00004EA050482EA04020260EBD108F1010891
:1036B000059BCB44CE444345BFD10FB0BDE8F08F4E
:1036C00017EE903A9F007AE701D8FF7F8C9D0108A2
:1036D0002DE9F04F97B0012415920F930423259AFA
:1036E000DDF880809340269A0790139102EB430007
:1036F00008F10101259A149001FA02F20C9100EBF5
:1037000082020892259A04FA02F5269A0D951A4427
:10371000002900F02E81229907EE102A6FF0404216
:1037200008F1FF37043904F1004442440E97CB18E6
:10373000A4F5205492002F461193219B10929B00D8
:1037400012910690039302F108030A93BD4B0B9369
:10375000BD4B07EE903A00230993C4F102052046C1
:10376000C4F1004604FB05F3C3F1020303FB05F5B6
:1037700004FB05F3C3F1020303FB05F504FB05F3AA
:10378000C3F1020303FB05F504FB05F3023B03FB56
:1037900005F525F000452946FFF722F90E9A049019
:1037A000BAB305974FF0000C07469646A7FB0710E3
:1037B0002EFA0CFAA6FB077B0CF1010CA1FB0532DB
:1037C0001AF0010FA7FB05294FF0010923F0004370
:1037D00009FA0CF922F000420BD0A2FB0462F619A0
:1037E00042EB0B02F60F46EA4206361B04EAE6728B
:1037F0001644A3FB04737F1840EB0300FF0FF14551
:1038000047EA4007A7EB040704EAE77B5F44CDD90A
:10381000059F17EE903A259A17EE101A2698CDE9D3
:103820000045FFF747F9002F00F01081089B129A1E
:10383000181FDDF844C052F8041F04EAE1739445F0
:103840000B4440F8043FF6D1259B3BB10121089879
:10385000DDE92532CDE90045FFF700FD224605965A
:103860004446DDF83C90DDF818B04FF0000A0A9E9F
:10387000DDF8408018E00499484600912146FFF7A2
:103880003BFA59F8083005999B0F5B420B40C01A70
:1038900002EAE07318440AF1010A039BCBF8000026
:1038A000B3445745994404D92B46002CE3D1204614
:1038B000F1E7259BA046144643B10C990698CDE943
:1038C0000025DDE92532FFF7C9FCC7B3089B0026B8
:1038D0000698A3F1040C0A99DDF810B05CF8043FD7
:1038E00001360268A3FB02A9AAFB05E32EF0004EF5
:1038F000AEFB043E13EB0A034EEB0909DB0F43EA70
:1039000049031B1B04EAE37E7344A3FB0B39A3FBAF
:1039100005EA2EF0004EAEFB04EA1EEB03034AEB71
:103920000909DB0FB74243EA4903A3EB040304EAA6
:10393000E37E734403600844D0D8259B43B1259BA4
:1039400017EE102A0C990698CDE90045FFF7FCFC0C
:10395000069B099A04339045069302F1010308D0AF
:1039600009930B9B1A6953F80C4F07EE902A0B939F
:10397000F3E6089B0D9D0C9C149E019301232246A7
:103980002146009330462B46FFF784FD002D56D08C
:10399000159B4FEA8808239A4FF000094FEA830AE3
:1039A0006FF0404308F1040BCDF814801344A04697
:1039B0009B000693249BC3F11F0E139BCDE903AB21
:1039C000A3EB020CB346DDF890A0B8F1000F2BD0AA
:1039D000059B239A5BF80370139BBF0F9342C7F1BB
:1039E00000074FEA57071FD90020DDE906230646E6
:1039F00004469D184045394655F8043F38BF5BF8EA
:103A0000201001301B1B01FA0AF2604522F000422F
:103A100042EA060221FA0EF6A3EB020323F000426B
:103A20004FEAD3742A60E5D1079B09F10109039A93
:103A300013440793049B9B440D9B4B45C5D117B082
:103A4000BDE8F08F8C9D010845ADD616259B002B57
:103A50003FF404AF08980121DDE92532CDE90045A6
:103A6000FFF7FCFB0C990698DDE92532CDE900450E
:103A7000FFF7F4FB63E700BF2DE9F04F4FF0040EB2
:103A80001D462DED048B0EFA03FE9DB009EE903A13
:103A900001232A9CAB40DDF8AC80199400EB0E04A6
:103AA000149017D0481E013A261FAA4D00EB030CB4
:103AB000149B1F1F10F9011F05EAE17384450B4495
:103AC00047F8043F12F9011F05EAE1730B4446F879
:103AD000043FEFD1199B3BB918F0010F40F09583DB
:103AE000199B002B00F0A28308F0010319EE902A25
:103AF000199900241A93B0EE698A974B511AA0467F
:103B0000189301231B919A460C9318EE101A012367
:103B1000042208F1010703FA01F00C9B02FA01F6F6
:103B200017979D000AFA01F3410803900F95DA00F8
:103B300001FB05F0079114991696DDE91945BC4281
:103B400088BF45F001050D9501EB40050818129559
:103B50001590284605EBC30500EB830308EE905A49
:103B60001393AB1909EE103A05EB460304930AF0E0
:103B70000BF8BAF1000F00F05E8318EE102AB8F1CE
:103B8000000F16994FEA8A08B2FA82F3DFF8D0B133
:103B9000A1F1040902F1FF324FEA53130499CDF861
:103BA00040B007EE102A14BF184643F0010018BFBA
:103BB00043F001038944CDF844A00B93139B654C5B
:103BC0000893159BDDF80CB00693149BDDF83CA020
:103BD0000593129B0A900293079B01EBC3070021F8
:103BE0005E4B0991C4F1020520460E9304FB05F2D9
:103BF000C2F1020202FB05F504FB05F2C2F102026A
:103C000002FB05F504FB05F2C2F1020202FB05F519
:103C100004FB05F2023A02FB05F525F000452946B2
:103C2000FEF7DEFE0E9B064618EE102A19EE101A5D
:103C300018EE900ACDE90045FEF73CFFBBF1000FFE
:103C400000F0CC80049B1A1F029B1968434442F881
:103C5000041F9145F9D10B9B002B00F0E080079BDE
:103C6000002B00F0EA80DDE90421D2E900300832BF
:103C7000A3FB000CA0FB053E23F00043A3FB043E86
:103C800018184EEB0C0CC30F43EA4C031B1B04EA41
:103C9000E3700344A3FB06C3ACFB050E20F0004019
:103CA000A0FB040E10EB0C0C4EEB03034FEADC7090
:103CB000974240EA4300A0EB040004EAE073184492
:103CC00008605144D1D10A9B002B00F08C80049BEA
:103CD000089A191F00230133106842449B4541F89C
:103CE000040FF8D80B9B002B00F08E80079BCBB302
:103CF000049A0699D2E900300832A3FB000CA0FB1D
:103D0000053E23F00043A3FB043E18184EEB0C0CB9
:103D1000C30F43EA4C031B1B04EAE3700344A3FBF9
:103D200006C3ACFB050E20F00040A0FB040E10EB18
:103D30000C0C4EEB03034FEADC70974240EA430061
:103D4000A0EB040004EAE073184408605144D1D1A8
:103D500008E000BF01D8FF7F649D010845ADD6167D
:103D60008C9D01080A9B4BB918EE103A19EE102AE7
:103D700011990898CDE90045FFF7E6FA0D9BABB91C
:103D800017EE103A93B10C9E19EE102A05983146A1
:103D9000CDE90045FFF7D8FA17EE103A19EE102AD0
:103DA00031460698CDE90045FFF7CEFA089A099BFF
:103DB000043201330892069A099304320692059A56
:103DC00004320592029A04320292119A93423CD034
:103DD000109AD2E903430C32109203E70B9BF3B124
:103DE0000A9B002BCAD118EE103A19EE102A11992D
:103DF0000298CDE90045FFF7A7FABBF1000F7FF469
:103E000066AF0B9B002BADD119EE903A18EE902ABD
:103E100001210498CDE90045FFF720FA66E719EE85
:103E2000903A18EE902A01210498CDE90045FFF759
:103E300015FA079B002B7FF416AF0A9B002BD2D0FC
:103E4000BBF1000F7FF443AFDBE7DDF844A0039D37
:103E5000012352465146129800932B46CDED018A1C
:103E6000FFF718FB01222B46514600925246139849
:103E7000CDED018AFFF70EFB0C9B9A4580F0A281E5
:103E8000169B049A043BCC48134405936FF04043BF
:103E9000534499000AEB4A030E9100EB8303089305
:103EA0000B1D1599029319440A910AF1FF311191E2
:103EB0000AF101010B911499CB180993079B02EBAE
:103EC000C3031093089B1C68C4F102052046C4F18B
:103ED000004605FB04F3C3F1020303FB05F505FBF4
:103EE00004F3C3F1020303FB05F505FB04F3C3F17F
:103EF000020303FB05F505FB04F3023B03FB05F599
:103F000025F000452946FEF76BFD119B0746C3B31C
:103F10000020BC4698460697ACFB0C1728FA00FE1A
:103F2000A6FB0CCB0130A1FB05321EF0010FACFB50
:103F300005294FF0010923F0004309FA00F922F0A6
:103F400000420CD0A2FB046216EB0C0642EB0B0203
:103F5000F60F46EA4206361B04EAE6721644A3FB55
:103F600004C31CEB010C47EB03074FEADC7CC145A3
:103F70004CEA470CACEB040C04EAEC7BDC44CBD9F8
:103F8000069F089B18EE102A19EE101A18EE900AD8
:103F9000CDE900455B68FEF78DFD039B002B00F02B
:103FA0002681049BDDF84880A3F1040B5346A2460A
:103FB000D946CDF818B01C46DDF838B013E04046BD
:103FC0000097FEF799FE58F80B309B0F5B42334089
:103FD000C01A0AEAE0731844029B49F8040F984497
:103FE000059B4B4506D02B4652462146002CE6D178
:103FF0002046F1E723465446DDF818B09A4618EEFD
:10400000103A002B00F0EE80DDF8108018EE103A28
:1040100018EE902A01214046CDE90045FFF71EF930
:10402000079B002B00F0EC80A8F1040B049A09997F
:10403000DDE90F0CD2E900E30832AEFB03E8AEFB8A
:10404000053923F00043A3FB043913EB0E0E49EBB3
:1040500008084FEADE7343EA48031B1B04EAE37EC9
:104060007344A3FB0783A8FB05E92EF0004EAEFBCB
:1040700004E91EEB080849EB03034FEAD87E944598
:104080004EEA430EAEEB040E04EAEE7373440B608B
:104090000144CFD106964FF000095646DDF84C801A
:1040A000DDF838A017E0314640460097FEF724FEC1
:1040B00058F80A30069A9B0F5B421340C01A04EA74
:1040C000E0731844029B09F101094BF8040F98446E
:1040D000039B4B4505D92B462246002EE3D13046A3
:1040E000F0E718EE103AB2464BB118EE103A18EE5F
:1040F000902A01210498CDE90045FFF7AFF8079B0E
:104100008BB3049A0A99DDE90F06D2E900C308329D
:10411000ACFB03CEACFB053823F00043A3FB043813
:1041200013EB0C0348EB0E0EDB0F43EA4E031B1B95
:1041300004EAE37C6344A3FB073EA3FB05C82CF021
:10414000004CACFB04C81CEB030348EB0E0CDB0F6C
:10415000B24243EA4C03A3EB040304EAE37C634466
:104160000B600144D1D10D9B43BB17EE103A93B1C4
:104170000C9E19EE102A09983146CDE90045FFF74B
:10418000E3F817EE103A19EE102A31460A98CDE9F5
:104190000045FFF7D9F8DDE90B32934246D2089B80
:1041A0000C3308930B9B01330B930A9B04330A9344
:1041B000099B0433099385E68C9D0108DDE90B32E8
:1041C0009342ECD317EE103A1B9AB0EE478A9A420C
:1041D0002CD0DDF830A0DDE9178353F8042F0C92C2
:1041E000189392E4079B002B7FF420AF52E718EE60
:1041F000103A002B7FF408AF049BA3F1040B49E7AE
:10420000039B002B3FF471AFF6E704EB0E07174D4D
:10421000174E04EB4E01174B19EE902A3846CDE9A4
:104220000056FEF747FC19EE903A53B91DB0BDECAD
:10423000048BBDE8F08F18EE103A013B07EE103A00
:1042400005E614983A460121CDE90056FFF706F835
:1042500019EE903A3A46204601212B962A951DB038
:10426000BDEC048BBDE8F04FFEF7F8BF01D8FF7F2F
:10427000FFD7BF7945ADD6162DE9F04F1C46012575
:104280002DED088BA9B0061B26930346012005FAE5
:1042900006F700942546019001348848189750F895
:1042A00024A02C4650F8255078081296099084488E
:1042B0001795B54050F8247009981A970AFB00F436
:1042C0003A9800EBC4074FEAC4083846FFF7D4FB1E
:1042D00039461A9FEA003A9807FA06F33A9E00EB2D
:1042E000C30006EB83031E9023931E46034600EB98
:1042F000C50008EE100A00EB840003EB850516905C
:1043000018461F9509F040FC42463A9918EE100AEB
:1043100009F03AFC002F00F04B836FF04043B800E7
:10432000DFF8A4B1534467490A900AF1FF309A00BC
:10433000CDF83CB03A9BD3461B92043219910C92B3
:104340003A9A1390159202EB8702149611920D96E9
:104350000E9310910F9EC6F102053046C6F100443F
:1043600006FB05F3C3F1020303FB05F506FB05F3AA
:10437000C3F1020303FB05F506FB05F3C3F10203DA
:1043800003FB05F506FB05F3023B03FB05F525F0F2
:1043900000452946FEF724FB13990890B1B3034664
:1043A000002732460846A4FB038920FA07FAA3FB3C
:1043B00003EC01371AF0010FAEFB0531A8FB05161F
:1043C0004FF0010623F0004306FA07F621F0004102
:1043D0000CD0A1FB021411EB080144EB0909C90F31
:1043E00041EA4901891A02EAE1740C44A3FB023153
:1043F00013EB0E034CEB010CDB0F864243EA4C033C
:10440000A3EB020302EAE3710B44CCD9099BDDE97B
:104410000D89002B43D00B9418EE106A5C46169F52
:10442000AB464FF0000A1B9D0F9A30E008993046CA
:1044300000912146FEF760FC0899009171594FEAFE
:10444000917C0B99CCF1000C0CEA010C2146A0EBFD
:104450000C0C384602EAEC7EF444C9F800C0FEF7C2
:104460004BFC7B590B999B0F5B420B40C01A02EA35
:10447000E07318440C9B0AF1010AC8F800001E44BE
:104480001F440A9B99449844099B534506D05B46B8
:10449000002CCBD12046C9F80040EBE7A3460D9A8B
:1044A0000E9B043204330D92119A0E939A420DD052
:1044B000109B53F80C2FCDE90F234BE7609D0108AB
:1044C000389D01088C9D010801D8FF7F129A0423B2
:1044D00018EE105A179C9340013AA00006EE902A5D
:1044E0001A9A05EB43012793D20020901B91119259
:1044F0001A46043B15440B4407EE105AC34D229351
:104500000B4601EB4201134413910A4609991C938F
:1045100002EB8103043B2193031F259302EB8103EC
:104520001D9300231693631E2493C5F102032846AE
:1045300005FB03F2C2F1020202FB03F305FB03F2E7
:10454000C2F1020202FB03F305FB03F2C2F1020215
:1045500002FB03F305FB03F2023A02FB03F323F031
:10456000004A5146FEF73CFA1090DDE916239342CB
:1045700000F04E81199B17EE101A129A18EE100ACD
:10458000CDE9005A5B68FEF795FADDE916329A42EA
:1045900040F25F811E9A02EB83001F9A02EB8304B4
:1045A000189BA3B11B9B2246209E8646191F1C9B6D
:1045B000DDF888C01F1F03461868334441F8040F14
:1045C0008C451068324447F8040FF5D17046129BB1
:1045D0009BB1DDF8488017EE102A179E43463146FE
:1045E000CDE9005AFEF7B0FE2046434617EE102AEA
:1045F0003146CDE9005AFEF7A7FE099B002B00F0DB
:10460000BF81139B0A981E1F1D9BDDF884C01C1FD1
:104610003346DDE914122746A6461468024443F8DF
:10462000044F9C450C68014447F8044FF5D116EE41
:10463000903A74469BB116EE903A18EE102A1398F1
:104640000121CDE9005AFEF709FE16EE903A18EE68
:10465000102A01211D98CDE9005AFEF7FFFD1B9B92
:1046600004330C931C9BCDE90D460433DDE914495A
:104670000B930023CB460F940893089B0E9A0133AB
:10468000109E0C9C089352F8043F0E920D9AA6FBC4
:1046900003EC52F8041F0D920B9AA6FB017154F81B
:1046A000046C52F8040C52F8088B0B92AEFB0A32E1
:1046B000A7FB0A2923F0004322F00042A3FB05399F
:1046C00013EB0E0E49EB0C0C4FEADE7E4EEA4C0E5D
:1046D000A2FB052CD219AEEB050E4CEB0101D20F5B
:1046E00005EAEE7342EA41029E44521BAEFB089873
:1046F00005EAE273A0FB0E0E1344224652F8087B33
:104700000C92A9FB0A12A0FB0A2421F00041A7FB8E
:1047100003C722F00042A6FB0336A1FB051411EBF0
:10472000090944EB08084FEAD9710F9C41EA480196
:10473000ACFB0A89A2FB052928F00048491B121886
:1047400049EB0E0ED20F42EA4E02A3FB0AE0A8FB91
:1047500005802EF0004E521B18EB0C0C40EB0700AE
:104760004FEADC7C4CEA400CAEFB05E01EEB030399
:10477000ACEB050C40EB0600DB0F05EAEC7843EAF6
:10478000400305EAE1705B1B0144119805EAE37EF2
:10479000CBF8001005EAE27173440A440A994BF819
:1047A00001200CEB08028344226063500444DDE9DD
:1047B00008320F949A423FF660AF129B9BB1129F52
:1047C00017EE102A1A9C3B4615982146CDE9005A4F
:1047D000FEF7BAFD3B4617EE102A21461498CDE9A4
:1047E000005AFEF7B1FD159A169B0432013315925B
:1047F000149A1693043214921A9A9A4200F0DC80AA
:10480000199B53F80C5F19938FE600BF01D8FF7F07
:10481000179F0124DDF860803A46394643461E98CA
:104820008DED018A0094FEF735FE43463A4639463F
:104830001F9800948DED018AFEF72CFE199B129AA9
:1048400017EE101A18EE100ACDE9005A5B68FEF751
:1048500031F92499C5F10044A1B3109B00264FF013
:104860000109A4FB03E821FA06FBA3FB03C70136F9
:104870001BF0010FACFB0A32AEFB0A2009FA06F06E
:1048800023F0004322F000420CD0A2FB052412EBDF
:104890000E0244EB0808D20F42EA4802521B05EA16
:1048A000E2741444A3FB053213EB0C0347EB02073D
:1048B000DB0F814243EA4703A3EB050305EAE372FA
:1048C0001344CED2189B002B3FD02A460894DDF823
:1048D00080B0179C259DDDE91B98DDE91E672CE063
:1048E0001099304600912146FEF706FA1099009182
:1048F00071594FEA917C0899CCF1000C0CEA010C3B
:104900002146A0EB0C0C384602EAEC7EF444C9F8D0
:1049100000C0FEF7F1F97B5908999B0F5B420B40F1
:10492000C01A02EAE0731844139B5E4448F8040B73
:104930005F44434509F1040906D05346002CCFD10A
:104940002046C9F80040EFE71546129B002B3FF4C4
:1049500054AE129E18EE102A01211B983346CDE961
:10496000005AFEF77BFC334618EE102A01211C98F2
:10497000CDE9005AFEF772FC099B002B7FF441AE93
:1049800016EE903A002B3FF41AAF18EE102A139847
:104990000121CDE9005AFEF761FC16EE903A18EEBF
:1049A000102A01211D98CDE9005AFEF757FC04E7B3
:1049B0000423129A934027931A9F0124189E18EEFD
:1049C000105A3A46394633463A988DED018A00949A
:1049D000FEF760FD33463A4639462398CDE9004557
:1049E000FEF758FD3A9BEB1A13F0070205D0083387
:1049F0009B1A3A9AD31808EE103A129A082309988B
:104A0000934018EE102A02EB43011A440BEE101AE1
:104A10000AEE902A01EBC0013A9A8A1A0AEE101A9D
:104A200012F0030100F0F5810432521A3A998A1803
:104A30000D920D99279A0A443A991092521A12F03F
:104A4000070100F0E4810832521A3A990A441AEE3A
:104A5000101A129E18EE100A0B441A9900969A42E8
:104A6000C1EB41170E9138BF1A46179B1E990A2BAE
:104A700009EE902A1A46994628BF0A2211979C1AD5
:104A8000089201EB8401FEF76DFB1F99A500089ABF
:104A90004B461AEE900A2944C4EB441500960F9534
:104AA000FEF760FBAF4B3146269C18EE100A03EB75
:104AB000C40253F834405368A3EB830203EB43036F
:104AC00004EB420404EB83031393FCF79FFE31468F
:104AD0001AEE900AFCF79AFE33461AEE902A18EE68
:104AE000101A1BEE100AFDF75FF9314618EE100A96
:104AF000FDF7C0F831461AEE900AFDF7BBF83B1BF4
:104B00000C930E991AEE100A129E0A290A461A9F51
:104B100028BF0A2200963B468C1A3A99089201EB6C
:104B20008401FEF71FFB2399A5003B46089A19EE66
:104B3000900A29440096FEF715FB31461AEE100A3A
:104B40003546FCF763FE314619EE900AC4EB441477
:104B5000FCF75CFE324618EE101A1AEE100AFDF74A
:104B6000A7F832461AEE901A19EE900AFDF7A0F84F
:104B70002A461AEE101A19EE900AFDF73DF82A4659
:104B80001BEE101A19EE900AFDF758FA294619EE95
:104B9000900A19EE906AFCF721FF0C9B1C1B0F9BDF
:104BA0001C44002CC0F2D98000F05B8100226E4BC7
:104BB00000256E4E06E010461946FDF77DFB0246C5
:104BC0000B46B4B114F0010F4FEA6404F3D0284649
:104BD0003146CDE90832FDF76FFB05460E46DDE9AB
:104BE000083210461946FDF767FB02460B46002CBB
:104BF000E8D108EE905A09EE106A189B002B00F0DD
:104C0000BD8019EE903A4FF00008083BC346089368
:104C10000D9B043B099336E010F5800F5448814109
:104C200080F295805E420B9B4FF0C8010A9A6AEBB6
:104C30004A0A2EEA060603EA0A0A06FA0CFC26FAD3
:104C400007F706FA09F68AEA050A0AFA09FA4AEAA9
:104C50000C0A4AEA070A2AF060434FEA5A7A1E43CE
:104C6000734233434AEAD37321FA03F303F0010397
:104C70001C1953425C40099BA41843F8044F099344
:104C8000189B5B457AD0089C18EE902A19EE103AD2
:104C90000BF1010BF4E902010894FDF70DFB354B14
:104CA0008D02CA0F9842344B45EA90550A9271EB37
:104CB000030440F23D42C1F30A5425F04045ACBF25
:104CC0000126002610F5800FA2EB04024FEA802E89
:104CD00045F0804571EB030340F2FD3302F03F07DE
:104CE00002F01F02A3EB040347F34014C7F13F0C8B
:104CF0000EEAE37EC2F1200805EAE37527460CF0D0
:104D00001F094FEAEC7A8EEA050325EA070704EA51
:104D1000030407FA08F80B934FEA6C1384EA0E04B5
:104D20006CF01F0C24FA02F4A2F1200244EA0804F9
:104D300027FA02F2C9F1200744EA0204B4BF0122B3
:104D40000022724002EAD172B2427FF465AF0020C5
:104D500029B0BDEC088BBDE8F08F644200224FF013
:104D6000804325E7E09C01080000E03F0000F03FA1
:104D7000FFFFDF410100C0FFFFFFDFC10C9A624B64
:104D8000D41783FB02131344C4EB2314269BC4EBF8
:104D90004415042BA2EB05053ED9179E129F0D9BCF
:104DA000DDF86890DDF838804A463A98414602932B
:104DB00003941E9BCDE90457CDE90066FEF7AAF8DF
:104DC0000D9B4A464146239805970096CDE901631D
:104DD000CDE903451F9BFEF79DF8139A0C9B119993
:104DE000134403F10A02914209DD0E98283311920F
:104DF000C0EB40118B42BCBF00F1FF330E930C9B04
:104E0000002B35DD193B23EAE3730C9379E6109A06
:104E10001DE68DED0DAA0CE6179E109F129B0D9AB4
:104E2000DDF86890DDF838803A984146029206979E
:104E30004A460394CDE90453CDE900661E9BFEF774
:104E400047FC129B4A46414605930D9B23980697C3
:104E50000096CDE90163CDE903451F9BFEF738FCC1
:104E6000BBE7002308EE903A284B09EE103AC4E65F
:104E70000E9B179A934230D2189B002B42D06FF0B2
:104E800040400E9A179B00260244239F9B003A9CA9
:104E900090003A9A191FBC46043A39441A441A9BA6
:104EA0009D0023589F0F23187F427F0843F8047FFB
:104EB0009A42FBD15CF800309F0F0CEB00037F425D
:104EC0007F0843F8047F8B42FBD10136189B2C44AA
:104ED000AC44B34229442A44E3D1189B5E0011D06C
:104EE000179B0027DDF8E8809C001A9BC1469D00B7
:104EF000013741464846224608F046FEBE42A844D5
:104F0000A144F5D1012023E7430821840000F03FAC
:104F10002DE9F04F2DED108BE5B008EE901A09EE5B
:104F2000102A0421809D022263930AEE100A6F1E4C
:104F30007E9B81980EEE905A02FA07FE4E93AA408D
:104F400001FA05F301FA07F60546811800EB430064
:104F5000289705EBCE042D901844720007467F98E1
:104F600000282A970CBFAC46844628460CEE10CA8F
:104F700014BFAC468C46CDF8DCC004EB460CCDE942
:104F8000444665460446381ACDF890C0291B02F005
:104F9000070600F0070C00F1080508320127A5EB11
:104FA0000C050FEE104A921BBCF1000F18BF2846EB
:104FB00001F0070502EB04082218082001443E9284
:104FC000249A491B2144002D08BF114647911EEE2B
:104FD000901A07FA01F500FA01F12A461795289D63
:104FE0003691510807FA05FC459A38911EEE907AE1
:104FF000644600FA05FC1FEE100A6546CDF864C150
:1050000000EB42012E948C466108002E18BFC44666
:10501000249E0C461FEE101ACDF8C0C006EB420CC1
:105020001E44CDF8C4C000EB450C3898CDF8D4C070
:1050300001EBC00C3C961EEE906ACDF8CCC0A1F1FD
:10504000040CCDF8C8C02A981F9400EB430C1046FE
:10505000CDF8BCC001EB041CC34CCDF800C154F822
:1050600027403C9F16941744309C3D97319F07EB97
:10507000420C289F1022CDF8E8C002FA07FC20223B
:10508000CDF840C102FA07FC359FCDF870C107EB9F
:10509000450C339F3E9ACDF804C107EB430C389F73
:1050A000CDF8ECC002EBC70CA5F10802A218CDF8B0
:1050B0000CC104EB450C439C4C92369ACDF818C1B8
:1050C000083AA2182D9C60921A1FA2186192369A73
:1050D0008C1801EB420C1F9A0AEE90CA09EE904A16
:1050E00001EBC20C4FEA8E02CDF844C15692409AB1
:1050F000449C02EB8E0C22183D9CCDF83CC101EB88
:105100008E0C5792E2183A9C4B92249ACDF848C1E3
:1051100002440CEE902A319A024429921F9A04EB21
:10512000820C2E9C6400CDF828C101EB870C5894AA
:105130000C18359853944C191944CDF808C10DEE4C
:10514000104A441933980DEE904A419C3F91F90062
:105150002C4454915D94C4183B983494C4182A98F4
:10516000C11847980EEE104A0BEE901A7F4911F8BD
:1051700006C051002C91411946985A912844CDF807
:1051800034C15B90309C329AA4F108002F995E9054
:1051900002EB87001A445F90C81801EB4301169B8D
:1051A0003990559162929A002B925A1E5B01489257
:1051B00049931EEE902A18EE901A1AEE100A1EEE6F
:1051C000904AFDF747FF19EE101A1EEE902A1AEECC
:1051D000100AFDF73FFF664B18EE907A19EE106A41
:1051E000195D4B1E01219940179B002B00F076841E
:1051F0007C1E751E4F4220462E4604EB030EAC4625
:10520000224612F9013F8B42D3DABB42D1DD1CF9B1
:10521000013F9F42CDDA8B42B4BF00230123002B14
:10522000C7D19645EDD10029C3DB1A4610F9011FFD
:1052300011FB0122864543EA0203F7D142EAE373F8
:105240000020179AAF18024616F9011F11FB012220
:10525000B74240EA0200F7D142EAE07244F2B611E6
:1052600043EA02001A4442EAE0728A42A1D81FEEE1
:10527000103AA3F10808179B4746E61814F9010FE6
:105280000022C117FCF738FFA642E7E90201F5D179
:1052900019EE903AA3F10807179B3E46EC1815F952
:1052A000010F0022C117FCF727FFAC42E6E902011B
:1052B000F5D11EEE901A1FEE100AFCF7A7FA1EEEAB
:1052C000901A19EE900A0024FCF7A0FA1EEE903A0C
:1052D00019EE902A1FEE101A1AEE900A2546FCF7D6
:1052E00063FD1EEE901A1FEE100A2646FCF7C2FC64
:1052F0001EEE901A19EE900AFCF7BCFC1FEE100A85
:10530000CDED00EA16A3D3E90023FCF735FD19EE35
:10531000900ACDED00EA12A3D3E90023FCF72CFD9F
:105320001EEE902A1AEE901A1FEE100AFCF786FE67
:105330001EEE902A1AEE901A19EE900AFCF77EFEE5
:105340001EEE901A1FEE100AFCF748FB1EEE901A94
:1053500019EE900AFCF742FBDDF85C900AE000BF12
:10536000000000008000C840609D0108205C01082A
:105370002C5C01080136F8E9022310461946FCF7B7
:105380009BFF02460B4620462946FCF7F7FE0546E2
:105390000C46F7E9022310461946FCF78DFF02463A
:1053A0000B4628462146FCF7E9FEB14504460D466A
:1053B000E0D17A4B834203F16143A3F50423A3F1C7
:1053C00011038B41FFF6F5AE379B19EE102A18EE4C
:1053D000901A1CEE100A00931EEE903A03F0BEFCE9
:1053E00000283FF4E6AE2B9C1FEE107A00251EEE3F
:1053F000903A07EB440019EE102A18EE901A019526
:10540000814600EB4405CDED00EA3E19FEF734FB82
:10541000DDF8588000231E9501954D4600934246C5
:105420000223414648462544FEF734F84346CA461F
:1054300008EE109A0FEE905ACDF85880002B3FF4EA
:10544000B8AE224657F81440209656F81200C4F120
:1054500002061E9D914606FB04F305EB4201C0F1D6
:105460000205C3F102032B921A91114403FB06F6C5
:1054700005FB00F318915146C3F10203DDF868A063
:1054800005FB03F306FB04F5C5F1020505FB06F673
:1054900003FB00F5C5F1020505FB03F306FB04F56C
:1054A000C5F1020506FB05F505FB04F4023C04FB0F
:1054B00005F503FB00F425F0004C1FEE905AC4F1F3
:1054C0000204CDF888C004FB03F34C4603FB00F054
:1054D000023800FB03F323F000402190504608F00F
:1054E000B9FA4A46DDF860901FEE901A484608F077
:1054F000B1FA0123209E0021489A3B51301D9200B1
:10550000274608F0BDFB224600211FEE100A08F0D6
:10551000B7FB1E9E22461FEE901A3046264408F026
:1055200099FA2246304618EE101A08F093FA0BEE5C
:10553000106A4446499E331B5B0003F11E0655F872
:1055400017301D2E03F1FF33199645F8173040F23E
:105550001F82AAF104026FF0404326924344A9F14E
:105560000402279209EB8302043225920AEB83029C
:1055700009EB830323921B934FF0000E4FF0FF358E
:10558000DDF894906FF0004ADDF860C0F046774691
:1055900029467646DDF868B003E000BFABADD85FC2
:1055A00019465CF8044D59F8042D84EA0600DC45E0
:1055B00044EA020300EA0100534486EA000684EA52
:1055C00007004FEAD37300EA050003F1FF3387EACF
:1055D000000782EA080082EA0E0203EA010300EAF9
:1055E000010002EA05020D4688EA00088EEA020E72
:1055F000D6D126EA01050E4028EA010C08EA010886
:10560000EB07374348EA0E0E6D08DF194FEACC78F6
:10561000189A4FEA5C0C45F1000518EB0E08126869
:105620004FF000034FF00101A6461C944CF1000C12
:1056300093462C460C931D920E9113930F93149343
:105640000D931093CDE911131098B8EB07038CEA72
:1056500004036CEB04012EFA00F22BFA00F5013082
:1056600002F00102109081EA0400154082F001026C
:105670000340594005EAD17325EAD1751A436E42B9
:1056800015925A420C9B02EA08017F1A02EA0C01A9
:1056900064EB0101149C0B9102EA04001199081AB1
:1056A0000D9902EA0109129961EB09090F9902EAC1
:1056B000010A0E99114002EA0B025B1AAEEB0202DC
:1056C0000B990C93139B63EB0A036D4206EA0705E3
:1056D0006EEB0E0EB8EB05080EEA010509EA0E0A9C
:1056E00003EA0E0E6CEB050C00EA0605651B0D9C2B
:1056F00064EB0A0A0C9CCDF834A004EA060A0E9C5E
:105700001640B4EB0A0A0F9CABEB060664EB0E0ED8
:10571000159CCDF838A04FF0000ACDF83CE014F10C
:10572000FF3E15964FEA57066AF1000A00EA0E0B93
:1057300046EAC1760C9910EB0B0B09EA0A0086EADF
:10574000070649EB000901EA0E00CDF844B009183C
:10575000CDF848900C9103EA0A0143EB0103D4F120
:10576000000B0B9913934FEA580306EA0B0643EA22
:10577000CC7387EA060783EA080303EA0E030EEAFE
:10578000020E964405EA0B0288EA030863EB030362
:10579000AA18149281EA510202EA030281EA020184
:1057A0000C460D9901EA030241EB02020D920F9D96
:1057B0000E992B40109801EA0B028A180E9245EBC5
:1057C0000302159B1F280F920BEA030B9B448CEAE4
:1057D0005C0303EA0A0A8CEA0A0C7FF435AF002363
:1057E000DDF86080DDF8689094461D469E461E46B2
:1057F0000B93DDE91C4703E059F8044F58F8047F88
:10580000119A1398A4FB02BA129A04FB02AA0C9AEA
:10581000A7FB02211BEB020207FB00110D984AEBCC
:10582000010152194EEB0101D50F22F0004245EA69
:1058300041054FEAE17E1499A4FB011A04FB00A480
:105840000E98A7FB00BA11EB0B0107FB0CA744EB6A
:105850000707C9180B9B43EB07072EB121F0004344
:1058600049F8042C48F8043CFA170136CB0F0B9288
:10587000169A43EA47039642BED1239C4FEADE7153
:105880001B9A4FEA5E0E0B98256025461360C00FE9
:10589000269A0B4652F8044F8EEA0404954223449C
:1058A00023F000444FEAD3731460F3D14442279AA3
:1058B00003461B9E640852F8045F654096422B44E1
:1058C00023F000454FEAD3731560F4D1219B119A60
:1058D0000093199B9418129EA3F11E0346EB060534
:1058E00019934B421C401D401946141B0C9A66EB41
:1058F0000505971807EA0307139B1E4643EB0606A8
:10590000D71B149A06EA01060D9963EB060643427B
:1059100012EB020841EB010908EA030809EA03094E
:10592000B2EB08080E9A61EB09090F9912EB020A13
:1059300041EB010B0AEA030A0BEA0300B2EB0A0A85
:10594000169B1FEE902A61EB000B1E992098CDE963
:105950000245CDE90476CDE90689CDE908ABFDF72E
:105960002DFA229A169B1BEE101A00921FEE100AB7
:1059700018EE102ACDE908ABCDE90689CDE9047609
:10598000CDE90245FDF71AFA199B1D2B3FF6F4AD40
:105990001A9B16991A68012982F0010208D02B99E6
:1059A000081F184453F8041F984242EA0102F9D133
:1059B00018EE103A19681FEE903A1B6819405342CE
:1059C0001343DB1701330B423FF4F3AB329A00234E
:1059D0002B9943F201001C461492551852F8041FEB
:1059E00026469542E1FB003623F000414FEAD3738F
:1059F000116043EA4603F1D1002B7FF4DAAB2B9A16
:105A00001D4643F20100141F209A1444043A52F830
:105A1000041F2E469442E1FB003623F000414FEA7A
:105A2000D373116043EA4603F1D11393002B7FF443
:105A3000C0AB1EEE907A022F00F2A4801EEE904AB8
:105A400018EE905A19EE106A1FEE108A06E0CDF893
:105A50000080FEF711FC00283FF4ABAB013C32465E
:105A600029463846B4F1FF3F2346F0D14E9B002B28
:105A700001F06783DDF83881179B002B01F09386D6
:105A80004D9B0120639F013B329E07F1FF39DDF8FA
:105A90005CC098404946451EC0F1010006E08342C3
:105AA00011DB94454B70214641F24F8356F804EFC9
:105AB0008A1C4C1C4FEA4E03D21B03F0004343EAFE
:105AC0000E039D42EBDA1EEE902AA14BA14953F83A
:105AD00022308A5C16934D92FFF765BB0029FFF6D2
